{
  "_format": "hh-sol-artifact-1",
  "contractName": "FBT",
  "sourceName": "contracts/Ferry_NFT.sol",
  "abi": [
    {
      "inputs": [
        {
          "internalType": "string",
          "name": "name",
          "type": "string"
        },
        {
          "internalType": "string",
          "name": "symbol",
          "type": "string"
        }
      ],
      "stateMutability": "nonpayable",
      "type": "constructor"
    },
    {
      "anonymous": false,
      "inputs": [
        {
          "indexed": true,
          "internalType": "address",
          "name": "owner",
          "type": "address"
        },
        {
          "indexed": true,
          "internalType": "address",
          "name": "approved",
          "type": "address"
        },
        {
          "indexed": true,
          "internalType": "uint256",
          "name": "tokenId",
          "type": "uint256"
        }
      ],
      "name": "Approval",
      "type": "event"
    },
    {
      "anonymous": false,
      "inputs": [
        {
          "indexed": true,
          "internalType": "address",
          "name": "owner",
          "type": "address"
        },
        {
          "indexed": true,
          "internalType": "address",
          "name": "operator",
          "type": "address"
        },
        {
          "indexed": false,
          "internalType": "bool",
          "name": "approved",
          "type": "bool"
        }
      ],
      "name": "ApprovalForAll",
      "type": "event"
    },
    {
      "anonymous": false,
      "inputs": [
        {
          "indexed": false,
          "internalType": "uint256",
          "name": "_fromTokenId",
          "type": "uint256"
        },
        {
          "indexed": false,
          "internalType": "uint256",
          "name": "_toTokenId",
          "type": "uint256"
        }
      ],
      "name": "BatchMetadataUpdate",
      "type": "event"
    },
    {
      "anonymous": false,
      "inputs": [
        {
          "indexed": false,
          "internalType": "uint256",
          "name": "_tokenId",
          "type": "uint256"
        }
      ],
      "name": "MetadataUpdate",
      "type": "event"
    },
    {
      "anonymous": false,
      "inputs": [
        {
          "indexed": true,
          "internalType": "bytes32",
          "name": "role",
          "type": "bytes32"
        },
        {
          "indexed": true,
          "internalType": "bytes32",
          "name": "previousAdminRole",
          "type": "bytes32"
        },
        {
          "indexed": true,
          "internalType": "bytes32",
          "name": "newAdminRole",
          "type": "bytes32"
        }
      ],
      "name": "RoleAdminChanged",
      "type": "event"
    },
    {
      "anonymous": false,
      "inputs": [
        {
          "indexed": true,
          "internalType": "bytes32",
          "name": "role",
          "type": "bytes32"
        },
        {
          "indexed": true,
          "internalType": "address",
          "name": "account",
          "type": "address"
        },
        {
          "indexed": true,
          "internalType": "address",
          "name": "sender",
          "type": "address"
        }
      ],
      "name": "RoleGranted",
      "type": "event"
    },
    {
      "anonymous": false,
      "inputs": [
        {
          "indexed": true,
          "internalType": "bytes32",
          "name": "role",
          "type": "bytes32"
        },
        {
          "indexed": true,
          "internalType": "address",
          "name": "account",
          "type": "address"
        },
        {
          "indexed": true,
          "internalType": "address",
          "name": "sender",
          "type": "address"
        }
      ],
      "name": "RoleRevoked",
      "type": "event"
    },
    {
      "anonymous": false,
      "inputs": [
        {
          "indexed": true,
          "internalType": "address",
          "name": "from",
          "type": "address"
        },
        {
          "indexed": true,
          "internalType": "address",
          "name": "to",
          "type": "address"
        },
        {
          "indexed": true,
          "internalType": "uint256",
          "name": "tokenId",
          "type": "uint256"
        }
      ],
      "name": "Transfer",
      "type": "event"
    },
    {
      "inputs": [],
      "name": "DEFAULT_ADMIN_ROLE",
      "outputs": [
        {
          "internalType": "bytes32",
          "name": "",
          "type": "bytes32"
        }
      ],
      "stateMutability": "view",
      "type": "function"
    },
    {
      "inputs": [],
      "name": "MINTER_ROLE",
      "outputs": [
        {
          "internalType": "bytes32",
          "name": "",
          "type": "bytes32"
        }
      ],
      "stateMutability": "view",
      "type": "function"
    },
    {
      "inputs": [
        {
          "internalType": "address",
          "name": "to",
          "type": "address"
        },
        {
          "internalType": "uint256",
          "name": "tokenId",
          "type": "uint256"
        }
      ],
      "name": "approve",
      "outputs": [],
      "stateMutability": "nonpayable",
      "type": "function"
    },
    {
      "inputs": [
        {
          "internalType": "address",
          "name": "owner",
          "type": "address"
        }
      ],
      "name": "balanceOf",
      "outputs": [
        {
          "internalType": "uint256",
          "name": "",
          "type": "uint256"
        }
      ],
      "stateMutability": "view",
      "type": "function"
    },
    {
      "inputs": [
        {
          "internalType": "uint256",
          "name": "tokenId",
          "type": "uint256"
        }
      ],
      "name": "getApproved",
      "outputs": [
        {
          "internalType": "address",
          "name": "",
          "type": "address"
        }
      ],
      "stateMutability": "view",
      "type": "function"
    },
    {
      "inputs": [
        {
          "internalType": "bytes32",
          "name": "role",
          "type": "bytes32"
        }
      ],
      "name": "getRoleAdmin",
      "outputs": [
        {
          "internalType": "bytes32",
          "name": "",
          "type": "bytes32"
        }
      ],
      "stateMutability": "view",
      "type": "function"
    },
    {
      "inputs": [
        {
          "internalType": "bytes32",
          "name": "role",
          "type": "bytes32"
        },
        {
          "internalType": "address",
          "name": "account",
          "type": "address"
        }
      ],
      "name": "grantRole",
      "outputs": [],
      "stateMutability": "nonpayable",
      "type": "function"
    },
    {
      "inputs": [
        {
          "internalType": "bytes32",
          "name": "role",
          "type": "bytes32"
        },
        {
          "internalType": "address",
          "name": "account",
          "type": "address"
        }
      ],
      "name": "hasRole",
      "outputs": [
        {
          "internalType": "bool",
          "name": "",
          "type": "bool"
        }
      ],
      "stateMutability": "view",
      "type": "function"
    },
    {
      "inputs": [
        {
          "internalType": "address",
          "name": "owner",
          "type": "address"
        },
        {
          "internalType": "address",
          "name": "operator",
          "type": "address"
        }
      ],
      "name": "isApprovedForAll",
      "outputs": [
        {
          "internalType": "bool",
          "name": "",
          "type": "bool"
        }
      ],
      "stateMutability": "view",
      "type": "function"
    },
    {
      "inputs": [],
      "name": "name",
      "outputs": [
        {
          "internalType": "string",
          "name": "",
          "type": "string"
        }
      ],
      "stateMutability": "view",
      "type": "function"
    },
    {
      "inputs": [
        {
          "internalType": "uint256",
          "name": "tokenId",
          "type": "uint256"
        }
      ],
      "name": "ownerOf",
      "outputs": [
        {
          "internalType": "address",
          "name": "",
          "type": "address"
        }
      ],
      "stateMutability": "view",
      "type": "function"
    },
    {
      "inputs": [
        {
          "internalType": "bytes32",
          "name": "role",
          "type": "bytes32"
        },
        {
          "internalType": "address",
          "name": "account",
          "type": "address"
        }
      ],
      "name": "renounceRole",
      "outputs": [],
      "stateMutability": "nonpayable",
      "type": "function"
    },
    {
      "inputs": [
        {
          "internalType": "bytes32",
          "name": "role",
          "type": "bytes32"
        },
        {
          "internalType": "address",
          "name": "account",
          "type": "address"
        }
      ],
      "name": "revokeRole",
      "outputs": [],
      "stateMutability": "nonpayable",
      "type": "function"
    },
    {
      "inputs": [
        {
          "internalType": "address",
          "name": "to",
          "type": "address"
        },
        {
          "internalType": "string",
          "name": "uri",
          "type": "string"
        }
      ],
      "name": "safeMint",
      "outputs": [
        {
          "internalType": "uint256",
          "name": "",
          "type": "uint256"
        }
      ],
      "stateMutability": "nonpayable",
      "type": "function"
    },
    {
      "inputs": [
        {
          "internalType": "address",
          "name": "from",
          "type": "address"
        },
        {
          "internalType": "address",
          "name": "to",
          "type": "address"
        },
        {
          "internalType": "uint256",
          "name": "tokenId",
          "type": "uint256"
        }
      ],
      "name": "safeTransferFrom",
      "outputs": [],
      "stateMutability": "nonpayable",
      "type": "function"
    },
    {
      "inputs": [
        {
          "internalType": "address",
          "name": "from",
          "type": "address"
        },
        {
          "internalType": "address",
          "name": "to",
          "type": "address"
        },
        {
          "internalType": "uint256",
          "name": "tokenId",
          "type": "uint256"
        },
        {
          "internalType": "bytes",
          "name": "data",
          "type": "bytes"
        }
      ],
      "name": "safeTransferFrom",
      "outputs": [],
      "stateMutability": "nonpayable",
      "type": "function"
    },
    {
      "inputs": [
        {
          "internalType": "address",
          "name": "operator",
          "type": "address"
        },
        {
          "internalType": "bool",
          "name": "approved",
          "type": "bool"
        }
      ],
      "name": "setApprovalForAll",
      "outputs": [],
      "stateMutability": "nonpayable",
      "type": "function"
    },
    {
      "inputs": [
        {
          "internalType": "bytes4",
          "name": "interfaceId",
          "type": "bytes4"
        }
      ],
      "name": "supportsInterface",
      "outputs": [
        {
          "internalType": "bool",
          "name": "",
          "type": "bool"
        }
      ],
      "stateMutability": "view",
      "type": "function"
    },
    {
      "inputs": [],
      "name": "symbol",
      "outputs": [
        {
          "internalType": "string",
          "name": "",
          "type": "string"
        }
      ],
      "stateMutability": "view",
      "type": "function"
    },
    {
      "inputs": [
        {
          "internalType": "uint256",
          "name": "tokenId",
          "type": "uint256"
        }
      ],
      "name": "tokenURI",
      "outputs": [
        {
          "internalType": "string",
          "name": "",
          "type": "string"
        }
      ],
      "stateMutability": "view",
      "type": "function"
    },
    {
      "inputs": [
        {
          "internalType": "address",
          "name": "from",
          "type": "address"
        },
        {
          "internalType": "address",
          "name": "to",
          "type": "address"
        },
        {
          "internalType": "uint256",
          "name": "tokenId",
          "type": "uint256"
        }
      ],
      "name": "transferFrom",
      "outputs": [],
      "stateMutability": "nonpayable",
      "type": "function"
    }
  ],
  "bytecode": "0x60806040523480156200001157600080fd5b5060405162003e7938038062003e798339818101604052810190620000379190620003a6565b818181600090816200004a919062000676565b5080600190816200005c919062000676565b505050620000917f9f2df0fed2c77648de5860a4cc508cd0818c85b8b8a1ab4ceeef8d981c8956a633620000ae60201b60201c565b620000a66000801b33620000ae60201b60201c565b50506200075d565b620000c08282620001a060201b60201c565b6200019c5760016007600084815260200190815260200160002060000160008373ffffffffffffffffffffffffffffffffffffffff1673ffffffffffffffffffffffffffffffffffffffff16815260200190815260200160002060006101000a81548160ff021916908315150217905550620001416200020b60201b60201c565b73ffffffffffffffffffffffffffffffffffffffff168173ffffffffffffffffffffffffffffffffffffffff16837f2f8788117e7eff1d82e926ec794901d17c78024a50270940304540a733656f0d60405160405180910390a45b5050565b60006007600084815260200190815260200160002060000160008373ffffffffffffffffffffffffffffffffffffffff1673ffffffffffffffffffffffffffffffffffffffff16815260200190815260200160002060009054906101000a900460ff16905092915050565b600033905090565b6000604051905090565b600080fd5b600080fd5b600080fd5b600080fd5b6000601f19601f8301169050919050565b7f4e487b7100000000000000000000000000000000000000000000000000000000600052604160045260246000fd5b6200027c8262000231565b810181811067ffffffffffffffff821117156200029e576200029d62000242565b5b80604052505050565b6000620002b362000213565b9050620002c1828262000271565b919050565b600067ffffffffffffffff821115620002e457620002e362000242565b5b620002ef8262000231565b9050602081019050919050565b60005b838110156200031c578082015181840152602081019050620002ff565b60008484015250505050565b60006200033f6200033984620002c6565b620002a7565b9050828152602081018484840111156200035e576200035d6200022c565b5b6200036b848285620002fc565b509392505050565b600082601f8301126200038b576200038a62000227565b5b81516200039d84826020860162000328565b91505092915050565b60008060408385031215620003c057620003bf6200021d565b5b600083015167ffffffffffffffff811115620003e157620003e062000222565b5b620003ef8582860162000373565b925050602083015167ffffffffffffffff81111562000413576200041262000222565b5b620004218582860162000373565b9150509250929050565b600081519050919050565b7f4e487b7100000000000000000000000000000000000000000000000000000000600052602260045260246000fd5b600060028204905060018216806200047e57607f821691505b60208210810362000494576200049362000436565b5b50919050565b60008190508160005260206000209050919050565b60006020601f8301049050919050565b600082821b905092915050565b600060088302620004fe7fffffffffffffffffffffffffffffffffffffffffffffffffffffffffffffffff82620004bf565b6200050a8683620004bf565b95508019841693508086168417925050509392505050565b6000819050919050565b6000819050919050565b600062000557620005516200054b8462000522565b6200052c565b62000522565b9050919050565b6000819050919050565b620005738362000536565b6200058b62000582826200055e565b848454620004cc565b825550505050565b600090565b620005a262000593565b620005af81848462000568565b505050565b5b81811015620005d757620005cb60008262000598565b600181019050620005b5565b5050565b601f8211156200062657620005f0816200049a565b620005fb84620004af565b810160208510156200060b578190505b620006236200061a85620004af565b830182620005b4565b50505b505050565b600082821c905092915050565b60006200064b600019846008026200062b565b1980831691505092915050565b600062000666838362000638565b9150826002028217905092915050565b62000681826200042b565b67ffffffffffffffff8111156200069d576200069c62000242565b5b620006a9825462000465565b620006b6828285620005db565b600060209050601f831160018114620006ee5760008415620006d9578287015190505b620006e5858262000658565b86555062000755565b601f198416620006fe866200049a565b60005b82811015620007285784890151825560018201915060208501945060208101905062000701565b8683101562000748578489015162000744601f89168262000638565b8355505b6001600288020188555050505b505050505050565b61370c806200076d6000396000f3fe608060405234801561001057600080fd5b50600436106101375760003560e01c806370a08231116100b8578063b88d4fde1161007c578063b88d4fde1461035e578063c87b56dd1461037a578063d204c45e146103aa578063d5391393146103da578063d547741f146103f8578063e985e9c51461041457610137565b806370a08231146102a657806391d14854146102d657806395d89b4114610306578063a217fddf14610324578063a22cb4651461034257610137565b8063248a9ca3116100ff578063248a9ca3146101f25780632f2ff15d1461022257806336568abe1461023e57806342842e0e1461025a5780636352211e1461027657610137565b806301ffc9a71461013c57806306fdde031461016c578063081812fc1461018a578063095ea7b3146101ba57806323b872dd146101d6575b600080fd5b61015660048036038101906101519190612261565b610444565b60405161016391906122a9565b60405180910390f35b610174610456565b6040516101819190612354565b60405180910390f35b6101a4600480360381019061019f91906123ac565b6104e8565b6040516101b1919061241a565b60405180910390f35b6101d460048036038101906101cf9190612461565b61052e565b005b6101f060048036038101906101eb91906124a1565b610645565b005b61020c6004803603810190610207919061252a565b6106a5565b6040516102199190612566565b60405180910390f35b61023c60048036038101906102379190612581565b6106c5565b005b61025860048036038101906102539190612581565b6106e6565b005b610274600480360381019061026f91906124a1565b610769565b005b610290600480360381019061028b91906123ac565b610789565b60405161029d919061241a565b60405180910390f35b6102c060048036038101906102bb91906125c1565b61080f565b6040516102cd91906125fd565b60405180910390f35b6102f060048036038101906102eb9190612581565b6108c6565b6040516102fd91906122a9565b60405180910390f35b61030e610931565b60405161031b9190612354565b60405180910390f35b61032c6109c3565b6040516103399190612566565b60405180910390f35b61035c60048036038101906103579190612644565b6109ca565b005b610378600480360381019061037391906127b9565b6109e0565b005b610394600480360381019061038f91906123ac565b610a42565b6040516103a19190612354565b60405180910390f35b6103c460048036038101906103bf91906128dd565b610b54565b6040516103d191906125fd565b60405180910390f35b6103e2610bc0565b6040516103ef9190612566565b60405180910390f35b610412600480360381019061040d9190612581565b610be4565b005b61042e60048036038101906104299190612939565b610c05565b60405161043b91906122a9565b60405180910390f35b600061044f82610c99565b9050919050565b606060008054610465906129a8565b80601f0160208091040260200160405190810160405280929190818152602001828054610491906129a8565b80156104de5780601f106104b3576101008083540402835291602001916104de565b820191906000526020600020905b8154815290600101906020018083116104c157829003601f168201915b5050505050905090565b60006104f382610d13565b6004600083815260200190815260200160002060009054906101000a900473ffffffffffffffffffffffffffffffffffffffff169050919050565b600061053982610789565b90508073ffffffffffffffffffffffffffffffffffffffff168373ffffffffffffffffffffffffffffffffffffffff16036105a9576040517f08c379a00000000000000000000000000000000000000000000000000000000081526004016105a090612a4b565b60405180910390fd5b8073ffffffffffffffffffffffffffffffffffffffff166105c8610d5e565b73ffffffffffffffffffffffffffffffffffffffff1614806105f757506105f6816105f1610d5e565b610c05565b5b610636576040517f08c379a000000000000000000000000000000000000000000000000000000000815260040161062d90612add565b60405180910390fd5b6106408383610d66565b505050565b610656610650610d5e565b82610e1f565b610695576040517f08c379a000000000000000000000000000000000000000000000000000000000815260040161068c90612b6f565b60405180910390fd5b6106a0838383610eb4565b505050565b600060076000838152602001908152602001600020600101549050919050565b6106ce826106a5565b6106d7816111ad565b6106e183836111c1565b505050565b6106ee610d5e565b73ffffffffffffffffffffffffffffffffffffffff168173ffffffffffffffffffffffffffffffffffffffff161461075b576040517f08c379a000000000000000000000000000000000000000000000000000000000815260040161075290612c01565b60405180910390fd5b61076582826112a2565b5050565b610784838383604051806020016040528060008152506109e0565b505050565b60008061079583611384565b9050600073ffffffffffffffffffffffffffffffffffffffff168173ffffffffffffffffffffffffffffffffffffffff1603610806576040517f08c379a00000000000000000000000000000000000000000000000000000000081526004016107fd90612c6d565b60405180910390fd5b80915050919050565b60008073ffffffffffffffffffffffffffffffffffffffff168273ffffffffffffffffffffffffffffffffffffffff160361087f576040517f08c379a000000000000000000000000000000000000000000000000000000000815260040161087690612cff565b60405180910390fd5b600360008373ffffffffffffffffffffffffffffffffffffffff1673ffffffffffffffffffffffffffffffffffffffff168152602001908152602001600020549050919050565b60006007600084815260200190815260200160002060000160008373ffffffffffffffffffffffffffffffffffffffff1673ffffffffffffffffffffffffffffffffffffffff16815260200190815260200160002060009054906101000a900460ff16905092915050565b606060018054610940906129a8565b80601f016020809104026020016040519081016040528092919081815260200182805461096c906129a8565b80156109b95780601f1061098e576101008083540402835291602001916109b9565b820191906000526020600020905b81548152906001019060200180831161099c57829003601f168201915b5050505050905090565b6000801b81565b6109dc6109d5610d5e565b83836113c1565b5050565b6109f16109eb610d5e565b83610e1f565b610a30576040517f08c379a0000000000000000000000000000000000000000000000000000000008152600401610a2790612b6f565b60405180910390fd5b610a3c8484848461152d565b50505050565b6060610a4d82610d13565b6000600660008481526020019081526020016000208054610a6d906129a8565b80601f0160208091040260200160405190810160405280929190818152602001828054610a99906129a8565b8015610ae65780601f10610abb57610100808354040283529160200191610ae6565b820191906000526020600020905b815481529060010190602001808311610ac957829003601f168201915b505050505090506000610af7611589565b90506000815103610b0c578192505050610b4f565b600082511115610b41578082604051602001610b29929190612d5b565b60405160208183030381529060405292505050610b4f565b610b4a846115a0565b925050505b919050565b60007f9f2df0fed2c77648de5860a4cc508cd0818c85b8b8a1ab4ceeef8d981c8956a6610b80816111ad565b60006008549050600160086000828254610b9a9190612dae565b92505081905550610bab8582611608565b610bb58185611626565b809250505092915050565b7f9f2df0fed2c77648de5860a4cc508cd0818c85b8b8a1ab4ceeef8d981c8956a681565b610bed826106a5565b610bf6816111ad565b610c0083836112a2565b505050565b6000600560008473ffffffffffffffffffffffffffffffffffffffff1673ffffffffffffffffffffffffffffffffffffffff16815260200190815260200160002060008373ffffffffffffffffffffffffffffffffffffffff1673ffffffffffffffffffffffffffffffffffffffff16815260200190815260200160002060009054906101000a900460ff16905092915050565b60007f7965db0b000000000000000000000000000000000000000000000000000000007bffffffffffffffffffffffffffffffffffffffffffffffffffffffff1916827bffffffffffffffffffffffffffffffffffffffffffffffffffffffff19161480610d0c5750610d0b826116ca565b5b9050919050565b610d1c8161172b565b610d5b576040517f08c379a0000000000000000000000000000000000000000000000000000000008152600401610d5290612c6d565b60405180910390fd5b50565b600033905090565b816004600083815260200190815260200160002060006101000a81548173ffffffffffffffffffffffffffffffffffffffff021916908373ffffffffffffffffffffffffffffffffffffffff160217905550808273ffffffffffffffffffffffffffffffffffffffff16610dd983610789565b73ffffffffffffffffffffffffffffffffffffffff167f8c5be1e5ebec7d5bd14f71427d1e84f3dd0314c0f7b2291e5b200ac8c7c3b92560405160405180910390a45050565b600080610e2b83610789565b90508073ffffffffffffffffffffffffffffffffffffffff168473ffffffffffffffffffffffffffffffffffffffff161480610e6d5750610e6c8185610c05565b5b80610eab57508373ffffffffffffffffffffffffffffffffffffffff16610e93846104e8565b73ffffffffffffffffffffffffffffffffffffffff16145b91505092915050565b8273ffffffffffffffffffffffffffffffffffffffff16610ed482610789565b73ffffffffffffffffffffffffffffffffffffffff1614610f2a576040517f08c379a0000000000000000000000000000000000000000000000000000000008152600401610f2190612e54565b60405180910390fd5b600073ffffffffffffffffffffffffffffffffffffffff168273ffffffffffffffffffffffffffffffffffffffff1603610f99576040517f08c379a0000000000000000000000000000000000000000000000000000000008152600401610f9090612ee6565b60405180910390fd5b610fa6838383600161176c565b8273ffffffffffffffffffffffffffffffffffffffff16610fc682610789565b73ffffffffffffffffffffffffffffffffffffffff161461101c576040517f08c379a000000000000000000000000000000000000000000000000000000000815260040161101390612e54565b60405180910390fd5b6004600082815260200190815260200160002060006101000a81549073ffffffffffffffffffffffffffffffffffffffff02191690556001600360008573ffffffffffffffffffffffffffffffffffffffff1673ffffffffffffffffffffffffffffffffffffffff168152602001908152602001600020600082825403925050819055506001600360008473ffffffffffffffffffffffffffffffffffffffff1673ffffffffffffffffffffffffffffffffffffffff16815260200190815260200160002060008282540192505081905550816002600083815260200190815260200160002060006101000a81548173ffffffffffffffffffffffffffffffffffffffff021916908373ffffffffffffffffffffffffffffffffffffffff160217905550808273ffffffffffffffffffffffffffffffffffffffff168473ffffffffffffffffffffffffffffffffffffffff167fddf252ad1be2c89b69c2b068fc378daa952ba7f163c4a11628f55a4df523b3ef60405160405180910390a46111a88383836001611772565b505050565b6111be816111b9610d5e565b611778565b50565b6111cb82826108c6565b61129e5760016007600084815260200190815260200160002060000160008373ffffffffffffffffffffffffffffffffffffffff1673ffffffffffffffffffffffffffffffffffffffff16815260200190815260200160002060006101000a81548160ff021916908315150217905550611243610d5e565b73ffffffffffffffffffffffffffffffffffffffff168173ffffffffffffffffffffffffffffffffffffffff16837f2f8788117e7eff1d82e926ec794901d17c78024a50270940304540a733656f0d60405160405180910390a45b5050565b6112ac82826108c6565b156113805760006007600084815260200190815260200160002060000160008373ffffffffffffffffffffffffffffffffffffffff1673ffffffffffffffffffffffffffffffffffffffff16815260200190815260200160002060006101000a81548160ff021916908315150217905550611325610d5e565b73ffffffffffffffffffffffffffffffffffffffff168173ffffffffffffffffffffffffffffffffffffffff16837ff6391f5c32d9c69d2a47ea670b442974b53935d1edc7fd64eb21e047a839171b60405160405180910390a45b5050565b60006002600083815260200190815260200160002060009054906101000a900473ffffffffffffffffffffffffffffffffffffffff169050919050565b8173ffffffffffffffffffffffffffffffffffffffff168373ffffffffffffffffffffffffffffffffffffffff160361142f576040517f08c379a000000000000000000000000000000000000000000000000000000000815260040161142690612f52565b60405180910390fd5b80600560008573ffffffffffffffffffffffffffffffffffffffff1673ffffffffffffffffffffffffffffffffffffffff16815260200190815260200160002060008473ffffffffffffffffffffffffffffffffffffffff1673ffffffffffffffffffffffffffffffffffffffff16815260200190815260200160002060006101000a81548160ff0219169083151502179055508173ffffffffffffffffffffffffffffffffffffffff168373ffffffffffffffffffffffffffffffffffffffff167f17307eab39ab6107e8899845ad3d59bd9653f200f220920489ca2b5937696c318360405161152091906122a9565b60405180910390a3505050565b611538848484610eb4565b611544848484846117fd565b611583576040517f08c379a000000000000000000000000000000000000000000000000000000000815260040161157a90612fe4565b60405180910390fd5b50505050565b606060405180602001604052806000815250905090565b60606115ab82610d13565b60006115b5611589565b905060008151116115d55760405180602001604052806000815250611600565b806115df84611984565b6040516020016115f0929190612d5b565b6040516020818303038152906040525b915050919050565b611622828260405180602001604052806000815250611a52565b5050565b61162f8261172b565b61166e576040517f08c379a000000000000000000000000000000000000000000000000000000000815260040161166590613076565b60405180910390fd5b8060066000848152602001908152602001600020908161168e9190613242565b507ff8e1a15aba9398e019f0b49df1a4fde98ee17ae345cb5f6b5e2c27f5033e8ce7826040516116be91906125fd565b60405180910390a15050565b6000634906490660e01b7bffffffffffffffffffffffffffffffffffffffffffffffffffffffff1916827bffffffffffffffffffffffffffffffffffffffffffffffffffffffff19161480611724575061172382611aad565b5b9050919050565b60008073ffffffffffffffffffffffffffffffffffffffff1661174d83611384565b73ffffffffffffffffffffffffffffffffffffffff1614159050919050565b50505050565b50505050565b61178282826108c6565b6117f95761178f81611b8f565b61179d8360001c6020611bbc565b6040516020016117ae9291906133ac565b6040516020818303038152906040526040517f08c379a00000000000000000000000000000000000000000000000000000000081526004016117f09190612354565b60405180910390fd5b5050565b600061181e8473ffffffffffffffffffffffffffffffffffffffff16611df8565b15611977578373ffffffffffffffffffffffffffffffffffffffff1663150b7a02611847610d5e565b8786866040518563ffffffff1660e01b8152600401611869949392919061343b565b6020604051808303816000875af19250505080156118a557506040513d601f19601f820116820180604052508101906118a2919061349c565b60015b611927573d80600081146118d5576040519150601f19603f3d011682016040523d82523d6000602084013e6118da565b606091505b50600081510361191f576040517f08c379a000000000000000000000000000000000000000000000000000000000815260040161191690612fe4565b60405180910390fd5b805181602001fd5b63150b7a0260e01b7bffffffffffffffffffffffffffffffffffffffffffffffffffffffff1916817bffffffffffffffffffffffffffffffffffffffffffffffffffffffff19161491505061197c565b600190505b949350505050565b60606000600161199384611e1b565b01905060008167ffffffffffffffff8111156119b2576119b161268e565b5b6040519080825280601f01601f1916602001820160405280156119e45781602001600182028036833780820191505090505b509050600082602001820190505b600115611a47578080600190039150507f3031323334353637383961626364656600000000000000000000000000000000600a86061a8153600a8581611a3b57611a3a6134c9565b5b049450600085036119f2575b819350505050919050565b611a5c8383611f6e565b611a6960008484846117fd565b611aa8576040517f08c379a0000000000000000000000000000000000000000000000000000000008152600401611a9f90612fe4565b60405180910390fd5b505050565b60007f80ac58cd000000000000000000000000000000000000000000000000000000007bffffffffffffffffffffffffffffffffffffffffffffffffffffffff1916827bffffffffffffffffffffffffffffffffffffffffffffffffffffffff19161480611b7857507f5b5e139f000000000000000000000000000000000000000000000000000000007bffffffffffffffffffffffffffffffffffffffffffffffffffffffff1916827bffffffffffffffffffffffffffffffffffffffffffffffffffffffff1916145b80611b885750611b878261218b565b5b9050919050565b6060611bb58273ffffffffffffffffffffffffffffffffffffffff16601460ff16611bbc565b9050919050565b606060006002836002611bcf91906134f8565b611bd99190612dae565b67ffffffffffffffff811115611bf257611bf161268e565b5b6040519080825280601f01601f191660200182016040528015611c245781602001600182028036833780820191505090505b5090507f300000000000000000000000000000000000000000000000000000000000000081600081518110611c5c57611c5b61353a565b5b60200101907effffffffffffffffffffffffffffffffffffffffffffffffffffffffffffff1916908160001a9053507f780000000000000000000000000000000000000000000000000000000000000081600181518110611cc057611cbf61353a565b5b60200101907effffffffffffffffffffffffffffffffffffffffffffffffffffffffffffff1916908160001a90535060006001846002611d0091906134f8565b611d0a9190612dae565b90505b6001811115611daa577f3031323334353637383961626364656600000000000000000000000000000000600f861660108110611d4c57611d4b61353a565b5b1a60f81b828281518110611d6357611d6261353a565b5b60200101907effffffffffffffffffffffffffffffffffffffffffffffffffffffffffffff1916908160001a905350600485901c945080611da390613569565b9050611d0d565b5060008414611dee576040517f08c379a0000000000000000000000000000000000000000000000000000000008152600401611de5906135de565b60405180910390fd5b8091505092915050565b6000808273ffffffffffffffffffffffffffffffffffffffff163b119050919050565b600080600090507a184f03e93ff9f4daa797ed6e38ed64bf6a1f0100000000000000008310611e79577a184f03e93ff9f4daa797ed6e38ed64bf6a1f0100000000000000008381611e6f57611e6e6134c9565b5b0492506040810190505b6d04ee2d6d415b85acef81000000008310611eb6576d04ee2d6d415b85acef81000000008381611eac57611eab6134c9565b5b0492506020810190505b662386f26fc100008310611ee557662386f26fc100008381611edb57611eda6134c9565b5b0492506010810190505b6305f5e1008310611f0e576305f5e1008381611f0457611f036134c9565b5b0492506008810190505b6127108310611f33576127108381611f2957611f286134c9565b5b0492506004810190505b60648310611f565760648381611f4c57611f4b6134c9565b5b0492506002810190505b600a8310611f65576001810190505b80915050919050565b600073ffffffffffffffffffffffffffffffffffffffff168273ffffffffffffffffffffffffffffffffffffffff1603611fdd576040517f08c379a0000000000000000000000000000000000000000000000000000000008152600401611fd49061364a565b60405180910390fd5b611fe68161172b565b15612026576040517f08c379a000000000000000000000000000000000000000000000000000000000815260040161201d906136b6565b60405180910390fd5b61203460008383600161176c565b61203d8161172b565b1561207d576040517f08c379a0000000000000000000000000000000000000000000000000000000008152600401612074906136b6565b60405180910390fd5b6001600360008473ffffffffffffffffffffffffffffffffffffffff1673ffffffffffffffffffffffffffffffffffffffff16815260200190815260200160002060008282540192505081905550816002600083815260200190815260200160002060006101000a81548173ffffffffffffffffffffffffffffffffffffffff021916908373ffffffffffffffffffffffffffffffffffffffff160217905550808273ffffffffffffffffffffffffffffffffffffffff16600073ffffffffffffffffffffffffffffffffffffffff167fddf252ad1be2c89b69c2b068fc378daa952ba7f163c4a11628f55a4df523b3ef60405160405180910390a4612187600083836001611772565b5050565b60007f01ffc9a7000000000000000000000000000000000000000000000000000000007bffffffffffffffffffffffffffffffffffffffffffffffffffffffff1916827bffffffffffffffffffffffffffffffffffffffffffffffffffffffff1916149050919050565b6000604051905090565b600080fd5b600080fd5b60007fffffffff0000000000000000000000000000000000000000000000000000000082169050919050565b61223e81612209565b811461224957600080fd5b50565b60008135905061225b81612235565b92915050565b600060208284031215612277576122766121ff565b5b60006122858482850161224c565b91505092915050565b60008115159050919050565b6122a38161228e565b82525050565b60006020820190506122be600083018461229a565b92915050565b600081519050919050565b600082825260208201905092915050565b60005b838110156122fe5780820151818401526020810190506122e3565b60008484015250505050565b6000601f19601f8301169050919050565b6000612326826122c4565b61233081856122cf565b93506123408185602086016122e0565b6123498161230a565b840191505092915050565b6000602082019050818103600083015261236e818461231b565b905092915050565b6000819050919050565b61238981612376565b811461239457600080fd5b50565b6000813590506123a681612380565b92915050565b6000602082840312156123c2576123c16121ff565b5b60006123d084828501612397565b91505092915050565b600073ffffffffffffffffffffffffffffffffffffffff82169050919050565b6000612404826123d9565b9050919050565b612414816123f9565b82525050565b600060208201905061242f600083018461240b565b92915050565b61243e816123f9565b811461244957600080fd5b50565b60008135905061245b81612435565b92915050565b60008060408385031215612478576124776121ff565b5b60006124868582860161244c565b925050602061249785828601612397565b9150509250929050565b6000806000606084860312156124ba576124b96121ff565b5b60006124c88682870161244c565b93505060206124d98682870161244c565b92505060406124ea86828701612397565b9150509250925092565b6000819050919050565b612507816124f4565b811461251257600080fd5b50565b600081359050612524816124fe565b92915050565b6000602082840312156125405761253f6121ff565b5b600061254e84828501612515565b91505092915050565b612560816124f4565b82525050565b600060208201905061257b6000830184612557565b92915050565b60008060408385031215612598576125976121ff565b5b60006125a685828601612515565b92505060206125b78582860161244c565b9150509250929050565b6000602082840312156125d7576125d66121ff565b5b60006125e58482850161244c565b91505092915050565b6125f781612376565b82525050565b600060208201905061261260008301846125ee565b92915050565b6126218161228e565b811461262c57600080fd5b50565b60008135905061263e81612618565b92915050565b6000806040838503121561265b5761265a6121ff565b5b60006126698582860161244c565b925050602061267a8582860161262f565b9150509250929050565b600080fd5b600080fd5b7f4e487b7100000000000000000000000000000000000000000000000000000000600052604160045260246000fd5b6126c68261230a565b810181811067ffffffffffffffff821117156126e5576126e461268e565b5b80604052505050565b60006126f86121f5565b905061270482826126bd565b919050565b600067ffffffffffffffff8211156127245761272361268e565b5b61272d8261230a565b9050602081019050919050565b82818337600083830152505050565b600061275c61275784612709565b6126ee565b90508281526020810184848401111561277857612777612689565b5b61278384828561273a565b509392505050565b600082601f8301126127a05761279f612684565b5b81356127b0848260208601612749565b91505092915050565b600080600080608085870312156127d3576127d26121ff565b5b60006127e18782880161244c565b94505060206127f28782880161244c565b935050604061280387828801612397565b925050606085013567ffffffffffffffff81111561282457612823612204565b5b6128308782880161278b565b91505092959194509250565b600067ffffffffffffffff8211156128575761285661268e565b5b6128608261230a565b9050602081019050919050565b600061288061287b8461283c565b6126ee565b90508281526020810184848401111561289c5761289b612689565b5b6128a784828561273a565b509392505050565b600082601f8301126128c4576128c3612684565b5b81356128d484826020860161286d565b91505092915050565b600080604083850312156128f4576128f36121ff565b5b60006129028582860161244c565b925050602083013567ffffffffffffffff81111561292357612922612204565b5b61292f858286016128af565b9150509250929050565b600080604083850312156129505761294f6121ff565b5b600061295e8582860161244c565b925050602061296f8582860161244c565b9150509250929050565b7f4e487b7100000000000000000000000000000000000000000000000000000000600052602260045260246000fd5b600060028204905060018216806129c057607f821691505b6020821081036129d3576129d2612979565b5b50919050565b7f4552433732313a20617070726f76616c20746f2063757272656e74206f776e6560008201527f7200000000000000000000000000000000000000000000000000000000000000602082015250565b6000612a356021836122cf565b9150612a40826129d9565b604082019050919050565b60006020820190508181036000830152612a6481612a28565b9050919050565b7f4552433732313a20617070726f76652063616c6c6572206973206e6f7420746f60008201527f6b656e206f776e6572206f7220617070726f76656420666f7220616c6c000000602082015250565b6000612ac7603d836122cf565b9150612ad282612a6b565b604082019050919050565b60006020820190508181036000830152612af681612aba565b9050919050565b7f4552433732313a2063616c6c6572206973206e6f7420746f6b656e206f776e6560008201527f72206f7220617070726f76656400000000000000000000000000000000000000602082015250565b6000612b59602d836122cf565b9150612b6482612afd565b604082019050919050565b60006020820190508181036000830152612b8881612b4c565b9050919050565b7f416363657373436f6e74726f6c3a2063616e206f6e6c792072656e6f756e636560008201527f20726f6c657320666f722073656c660000000000000000000000000000000000602082015250565b6000612beb602f836122cf565b9150612bf682612b8f565b604082019050919050565b60006020820190508181036000830152612c1a81612bde565b9050919050565b7f4552433732313a20696e76616c696420746f6b656e2049440000000000000000600082015250565b6000612c576018836122cf565b9150612c6282612c21565b602082019050919050565b60006020820190508181036000830152612c8681612c4a565b9050919050565b7f4552433732313a2061646472657373207a65726f206973206e6f74206120766160008201527f6c6964206f776e65720000000000000000000000000000000000000000000000602082015250565b6000612ce96029836122cf565b9150612cf482612c8d565b604082019050919050565b60006020820190508181036000830152612d1881612cdc565b9050919050565b600081905092915050565b6000612d35826122c4565b612d3f8185612d1f565b9350612d4f8185602086016122e0565b80840191505092915050565b6000612d678285612d2a565b9150612d738284612d2a565b91508190509392505050565b7f4e487b7100000000000000000000000000000000000000000000000000000000600052601160045260246000fd5b6000612db982612376565b9150612dc483612376565b9250828201905080821115612ddc57612ddb612d7f565b5b92915050565b7f4552433732313a207472616e736665722066726f6d20696e636f72726563742060008201527f6f776e6572000000000000000000000000000000000000000000000000000000602082015250565b6000612e3e6025836122cf565b9150612e4982612de2565b604082019050919050565b60006020820190508181036000830152612e6d81612e31565b9050919050565b7f4552433732313a207472616e7366657220746f20746865207a65726f2061646460008201527f7265737300000000000000000000000000000000000000000000000000000000602082015250565b6000612ed06024836122cf565b9150612edb82612e74565b604082019050919050565b60006020820190508181036000830152612eff81612ec3565b9050919050565b7f4552433732313a20617070726f766520746f2063616c6c657200000000000000600082015250565b6000612f3c6019836122cf565b9150612f4782612f06565b602082019050919050565b60006020820190508181036000830152612f6b81612f2f565b9050919050565b7f4552433732313a207472616e7366657220746f206e6f6e20455243373231526560008201527f63656976657220696d706c656d656e7465720000000000000000000000000000602082015250565b6000612fce6032836122cf565b9150612fd982612f72565b604082019050919050565b60006020820190508181036000830152612ffd81612fc1565b9050919050565b7f45524337323155524953746f726167653a2055524920736574206f66206e6f6e60008201527f6578697374656e7420746f6b656e000000000000000000000000000000000000602082015250565b6000613060602e836122cf565b915061306b82613004565b604082019050919050565b6000602082019050818103600083015261308f81613053565b9050919050565b60008190508160005260206000209050919050565b60006020601f8301049050919050565b600082821b905092915050565b6000600883026130f87fffffffffffffffffffffffffffffffffffffffffffffffffffffffffffffffff826130bb565b61310286836130bb565b95508019841693508086168417925050509392505050565b6000819050919050565b600061313f61313a61313584612376565b61311a565b612376565b9050919050565b6000819050919050565b61315983613124565b61316d61316582613146565b8484546130c8565b825550505050565b600090565b613182613175565b61318d818484613150565b505050565b5b818110156131b1576131a660008261317a565b600181019050613193565b5050565b601f8211156131f6576131c781613096565b6131d0846130ab565b810160208510156131df578190505b6131f36131eb856130ab565b830182613192565b50505b505050565b600082821c905092915050565b6000613219600019846008026131fb565b1980831691505092915050565b60006132328383613208565b9150826002028217905092915050565b61324b826122c4565b67ffffffffffffffff8111156132645761326361268e565b5b61326e82546129a8565b6132798282856131b5565b600060209050601f8311600181146132ac576000841561329a578287015190505b6132a48582613226565b86555061330c565b601f1984166132ba86613096565b60005b828110156132e2578489015182556001820191506020850194506020810190506132bd565b868310156132ff57848901516132fb601f891682613208565b8355505b6001600288020188555050505b505050505050565b7f416363657373436f6e74726f6c3a206163636f756e7420000000000000000000600082015250565b600061334a601783612d1f565b915061335582613314565b601782019050919050565b7f206973206d697373696e6720726f6c6520000000000000000000000000000000600082015250565b6000613396601183612d1f565b91506133a182613360565b601182019050919050565b60006133b78261333d565b91506133c38285612d2a565b91506133ce82613389565b91506133da8284612d2a565b91508190509392505050565b600081519050919050565b600082825260208201905092915050565b600061340d826133e6565b61341781856133f1565b93506134278185602086016122e0565b6134308161230a565b840191505092915050565b6000608082019050613450600083018761240b565b61345d602083018661240b565b61346a60408301856125ee565b818103606083015261347c8184613402565b905095945050505050565b60008151905061349681612235565b92915050565b6000602082840312156134b2576134b16121ff565b5b60006134c084828501613487565b91505092915050565b7f4e487b7100000000000000000000000000000000000000000000000000000000600052601260045260246000fd5b600061350382612376565b915061350e83612376565b925082820261351c81612376565b9150828204841483151761353357613532612d7f565b5b5092915050565b7f4e487b7100000000000000000000000000000000000000000000000000000000600052603260045260246000fd5b600061357482612376565b91506000820361358757613586612d7f565b5b600182039050919050565b7f537472696e67733a20686578206c656e67746820696e73756666696369656e74600082015250565b60006135c86020836122cf565b91506135d382613592565b602082019050919050565b600060208201905081810360008301526135f7816135bb565b9050919050565b7f4552433732313a206d696e7420746f20746865207a65726f2061646472657373600082015250565b60006136346020836122cf565b915061363f826135fe565b602082019050919050565b6000602082019050818103600083015261366381613627565b9050919050565b7f4552433732313a20746f6b656e20616c7265616479206d696e74656400000000600082015250565b60006136a0601c836122cf565b91506136ab8261366a565b602082019050919050565b600060208201905081810360008301526136cf81613693565b905091905056fea2646970667358221220d2628c79d40b2bcbb033bc67dceab7c8ab11573b15133961e78aae7cc5536b7d64736f6c63430008130033",
  "linkReferences": {},
  "deployedLinkReferences": {}
}